:1000000012C01FC01EC01DC01CC01BC01AC019C01A
:1000100018C017C016C015C014C0A6C012C011C0A9
:1000200010C00FC00EC011241FBECFEDCDBF20E009
:10003000A0E6B0E001C01D92AC37B207E1F707D1EE
:100040004FC1DECF009709F408950197EFECF7E078
:100050003197F1F700C00000F5CF009709F408953B
:10006000019722E02A95F1F700C0F7CFB0E0A0E0B9
:10007000EBE3F0E00EC169E0FDD090E0282F30E026
:10008000A9014F595F4F5A01D901AE59BF4FE9013C
:10009000CD59DF4FF901EC59FF4F4F01B9016B59B1
:1000A0007F4F89010A591F4FA90149595F4F7A01B2
:1000B000F901E859FF4F6F0127593F4FF501808142
:1000C000981770F5C19A8C91981760F5C09A88813D
:1000D000981750F5969AF4018081981738F5C49ACC
:1000E000FB018081981720F5C39AF8018081981749
:1000F00008F5C29AF70180819817F0F4C79AF601C3
:1001000080819817D8F4C69AF90180819817C0F4B5
:10011000C59A9F5F9F3F91F6CDB7DD27ECE0D0C039
:10012000C198D1CFC098D3CF9698D5CFC498D8CF07
:10013000C398DBCFC298DECFC798E1CFC698E4CF93
:10014000C598E7CF813049F018F0823051F008951A
:1001500093989498959A8ADF08959398949A95988D
:10016000FACF939A9498FBCF1F920F920FB60F92EB
:1001700011242F933F934F935F936F937F938F93AC
:100180009F93AF93BF93EF93FF9380916000DADF6B
:10019000809160008F5F8093600080916000833069
:1001A00010F010926000FF91EF91BF91AF919F917D
:1001B0008F917F916F915F914F913F912F910F9010
:1001C0000FBE0F901F90189582E080BF83B78460A8
:1001D00083BF80E886BF89B7816089BF08958B9A05
:1001E0008C9A8D9A939894989598B99AB89A8E9A71
:1001F000BC9ABB9ABA9ABF9ABE9ABD9AC198C09847
:100200009698C498C398C298C798C698C598E1E6CE
:10021000F0E01082118212821382148215821682FB
:100220001782108682E38187828783878487858708
:1002300086878787808B818B84E6828B838B848BF8
:10024000858B868B878B808F818F828F0895C7DF08
:10025000BBDF789490E080E0FC01EF59FF4F2081F4
:100260002F5F208301968B319105B1F785E090E0F7
:10027000E9DEF0CF002480FD060E660F11F08695B2
:10028000D1F7802D08952F923F924F925F926F92F7
:100290007F928F929F92AF92BF92CF92DF92EF9216
:1002A000FF920F931F93CF93DF93CDB7CA1BCDBFA0
:1002B000DD2709942A88398848885F846E847D8484
:1002C0008C849B84AA84B984C884DF80EE80FD80FE
:1002D0000C811B81AA81D981CE0FCDBFCA2F089571
:0402E000F894FFCFC0
:00000001FF
